:020000040800F2
:1000000008EF00209D9E00080D1E00080F1E00082E
:10001000111E0008131E0008151E00080000000035
:10002000000000000000000000000000171E000893
:10003000191E0008000000001B1E00081D1E0008FD
:10004000B79E0008B79E0008B79E0008B79E00083C
:10005000B79E0008B79E0008B79E0008B79E00082C
:10006000B79E0008B79E0008B79E0008B79E00081C
:10007000B79E0008B79E0008B79E0008B79E00080C
:10008000B79E0008B79E0008B79E0008B79E0008FC
:10009000B79E0008B79E0008B79E0008B79E0008EC
:1000A000B79E0008B79E0008B79E0008B79E0008DC
:1000B000E11D0008831D0008091D0008B79E000807
:1000C000B79E0008B79E0008B79E0008B79E0008BC
:1000D000B79E0008239C0008FD9700089D9C00081F
:1000E000B79E0008B79E0008B79E0008B79E00089C
:1000F000B79E0008B79E0008B79E0008B79E00088C
:10010000B79E0008B79E0008FB1D0008B79E0008B8
:10011000A11C0008453C0008B79E0008ED3D000802
:10012000B79E0008B79E0008B79E0008B79E00085B
:1001300000F002F800F0B0F80AA090E8000C824449
:100140008344AAF10107DA4501D100F0A5F8AFF226
:10015000090EBAE80F0013F0010F18BFFB1A43F0A5
:1001600001031847B8250100D82501000A444FF0C3
:10017000000C10F8013B13F0070408BF10F8014B06
:100180001D1108BF10F8015B641E05D010F8016B4B
:10019000641E01F8016BF9D113F0080F1EBF10F8AF
:1001A000014BAD1C0C1B09D16D1E58BF01F801CBD2
:1001B000FAD505E014F8016B01F8016B6D1EF9D555
:1001C0009142D6D37047000000230024002500266A
:1001D000103A28BF78C1FBD8520728BF30C148BFAA
:1001E0000B6070476E290CF0E88370290CF0A38136
:1001F000662910F04683652910F04383672910F0C3
:100200004083612910F03F8303681B0A28BF41F037
:10021000800169290CF0148164290CF01181752981
:100220000CF00E816F290DF06B8078290CF06F8136
:10023000E9290DF00580E4290DF00280F5290CF084
:10024000FF87EF290DF06880F8290CF06E810368B4
:10025000DB0928BF41F0800163290CF07487732902
:100260000CF07987E3290DF0F980F3290DF0FE8079
:10027000002070471FB50DF059F804000020002140
:100280000FF010F9401C6060002000210FF0F4F81E
:10029000E0601FBD10B510BD0DF082F91146FFF7EB
:1002A000E9FF00F0E7FD0DF0A9F903B4FFF7F2FF55
:1002B00003BC09F059FB000008B54FF4A06009F039
:1002C0000DFE26208DF8000003208DF801008DF82A
:1002D000020001208DF80300684609F004FE08BD05
:1002E00008B500200090A5208DF8000055208DF85D
:1002F00001003F208DF8020039208DF80300042111
:10030000684609F0D7FB642009F001FBA5208DF8B1
:10031000000056208DF8010002208DF80200FD201B
:100320008DF803000421684609F0C4FB642009F03D
:10033000EEFA08BD2DE9FC411F20F9490880F94972
:10034000D1F8860010F0E2F80746F74938460FF07A
:10035000AFFF074604460FF011FF0546F14890F83D
:100360008A002A460B46F1A10090F6480CF002F8EC
:10037000ED4938460FF09CFF074604460FF0FEFE9D
:10038000F14A03C2E748D0F88600F0490860ED481A
:1003900010210B46C822CDE9001078211E2008F05C
:1003A000DAFFE049D1F8810010F0B0F80746DE49E5
:1003B00038460FF07DFF074604460FF0DFFE054686
:1003C000D84890F885002A460B46E1A10090DD4808
:1003D0000BF0D0FFD44938460FF06AFF07460446B9
:1003E0000FF0CCFEE04A03C2CE48D0F88100DF49CE
:1003F0000860D44810210B46C822CDE900108C219A
:100400001E2008F0A8FFC749D1F8A00010F066F838
:100410000746D74938460FF04BFF074604460FF012
:10042000ADFE05462A460B46D2A1C6480BF0A2FFF8
:10043000C44810210B46C822CDE90010A0211E207F
:1004400008F089FFB749B1F8A40010F05FF807463B
:10045000B448B0F8A400CC490880CC4938460FF025
:1004600027FF074604460FF089FE05462A460B463D
:10047000C7A1B4480BF07EFFC44938460FF018FFFF
:10048000074604460FF07AFEC64A03C2AD48102163
:100490000B46C822CDE90010B4211E2008F05BFFF6
:1004A000A04890F89900032813DC9E4890F8990022
:1004B000BD4951F82020BDA1A2480BF05BFFA14827
:1004C00010210B46C822CDE9001011461E2008F06D
:1004D00042FF944890F88C20B7A19A480BF04AFF4D
:1004E000984810210B46C822CDE90010DC211E20BF
:1004F00008F031FF8B480078642190FBF1F201FB9A
:1005000012042246B3A18F480BF034FF8D4810210E
:100510000B46C822CDE90010F0211E2008F01BFF79
:1005200080484078642190FBF1F201FB12042246DE
:10053000AFA184480BF01EFF824810210B46C82251
:10054000CDE900104FF482711E2008F004FF7548B9
:1005500090F87D000090734890F87C30B0F87A20D5
:10056000AAA178480BF006FF764810210B46C82256
:10057000CDE900104FF48C711E2008F0ECFE6948A4
:1005800090F880000090674890F87F3090F87E20C7
:10059000A5A16C480BF0EEFE6A4810210B46C8225C
:1005A000CDE900104FF496711E2008F0D4FEBDE88E
:1005B000FC812DE9FF5F81460C46002003900290EC
:1005C000002506E059F8251003980FF003FE03906C
:1005D0006D1CA542F6DB20460FF059FA07460022B3
:1005E000984B0FF0BBFA05460E4603980FF0C6FD78
:1005F00007460022934B0FF0B1FA2A463346CDE965
:1006000000010FF053F882460EF062FF029002984C
:1006100004B0BDE8F09F2DE9FC5F81468A460024C6
:10062000A3460BE059F8241059F824000FF0B6FF48
:10063000054659460FF0CEFD8346641C5445F1DB58
:1006400050460FF04BFF0146009058460FF030FE29
:1006500001900FF093FD07460EF0E8FE05460EF000
:1006600037FFBDE8FC9F2DE9F04F85B006460D46EB
:10067000002004908246002406E056F824100498D6
:100680000FF0A8FD0490641CAC42F6DB28460FF086
:1006900025FF0746394604980FF00AFE81460024DC
:1006A00014E056F82400494610F076F8804656F8D3
:1006B0002400494610F070F8834641460FF06EFF63
:1006C000074651460FF086FD8246641CAC42E8DBCB
:1006D000681E0FF003FF0146019050460FF0E8FD41
:1006E00083460FF04BFDCDE902010EF09FFE074659
:1006F0000EF0EEFE05B0BDE8F08F10B504462146C1
:1007000020460FF097FE01D0012010BD0020FCE72D
:100710002DE9F0410546002700260024A1E0000055
:100720004C010020D00300200050C3474C6F6E677F
:1007300069747564653A252E35662025316320205D
:10074000200000007804002060000020C00000208D
:100750004C617469747564653A252E3566202531BF
:10076000632020200000000068000020BC00002062
:1007700000002041416C7469747564653A252E311E
:10078000666D202020202000B000002000007A4468
:1007900053706565643A252E33666B6D2F68202093
:1007A00020202000880000200000002046697820DA
:1007B0004D6F64653A2573004750532B42442056D1
:1007C000616C696420736174656C6C6974653A2549
:1007D000303264004750532056697369626C65205B
:1007E000736174656C6C6974653A2530326400001D
:1007F00042442056697369626C6520736174656C4C
:100800006C6974653A253032640000005554432009
:10081000446174653A253034642F253032642F25C5
:1008200030326420202000005554432054696D6507
:100830003A253032643A253032643A253032642029
:10084000202000000000F03F55F82400FFF755FF7E
:1008500030B955F8241038460FF0BCFC0746761C1A
:10086000641CB4F5FA6FEFDB16B9F748076808E0C7
:1008700030460FF033FE8046414638460FF018FDF3
:1008800007463846BDE8F0812DE9F04706464FF0AF
:100890000008002400250CE056F82500FFF72DFF86
:1008A00030B956F8251040460FF094FC8046641C81
:1008B0006D1CB5F5FA6FEFDB1CB9E348D0F800808A
:1008C00008E020460FF00AFE8146494640460FF0F8
:1008D000EFFC804600250EE056F8250041460FF05B
:1008E0005BFF0746394638460FF058FE0746D748A3
:1008F00040F825706D1CB5F5FA6FEDDBD348FFF7B6
:1009000007FF804600240AE0D04A52F8241052F82B
:1009100024000FF043FECD4941F82400641CB4F5D7
:10092000FA6FF1DB414640460FF038FE8146C7487A
:10093000FFF7EEFE824649460FF0BAFCBDE8F087AD
:1009400010B50446C248016820460FF073FD05D07B
:10095000C048016820460FF06DFD01D1012010BD97
:100960000020FCE72DE9FF4705460E462846FFF725
:10097000C4FE18B93046FFF7C0FE10B1B248046893
:10098000D6E028460FF0FAFB21F0004107460EF0B2
:100990009FFD814630460FF0F1FB21F000410746F4
:1009A0000EF096FD82463046FFF7CAFF80B34846F8
:1009B0000FF0E4FB07460022A74B0EF0CFFF02D159
:1009C0004FF07E54B4E048460FF0D8FB07460022B3
:1009D000A14B0FF0C1F90DD230460FF0CFFB074607
:1009E000002213460FF0B8F902D2994804689FE03C
:1009F00000249DE030460FF0C1FB0746002213465D
:100A00000FF0AAF901D2002492E0914804688FE027
:100A1000FFE750460FF0B2FB0746002213460EF0E8
:100A20009DFF02D14FF07E5482E050460FF0A6FBAE
:100A300007460022884B0EF091FF1AD130460FF086
:100A40009DFB0746002213460FF086F901D22C4683
:100A50006EE028460FF092FB07463A460B46002010
:100A60007D490EF023FECDE902010EF031FD044672
:100A70005EE030460FF082FB074600224FF08043D5
:100A80000EF06CFF05D1294628460FF087FD04467D
:100A90004EE030460FF072FB074600226F4B0EF01F
:100AA0005DFF14D128460FF069FB0746002213466C
:100AB0000FF052F90BD828460FF060FB07460EF0F6
:100AC000B5FCCDE902010EF003FD044630E02846F6
:100AD0000FF054FB0746002213460FF003F814D220
:100AE00030460FF04BFB07460DF048FDCDE9020103
:100AF00030460FF043FBCDE90001DDE902230FF0A2
:100B00002BF902D25048046812E030460FF036FB51
:100B10000746884628460FF031FB3A464346CDE962
:100B200000010DF047FFCDE902010EF0D1FC0446B3
:100B3000204604B0BDE8F0872DE9F04706464FF0A7
:100B40000008002500240CE056F82400FFF7D5FD2E
:100B500030B956F8241040460FF03CFB80466D1C1F
:100B6000641CB4F5FA6FEFDB1DB93748D0F800808C
:100B700008E028460FF0B2FC8146494640460FF097
:100B800097FB8046002410E056F8240041460FF001
:100B900003FE0746394638460FF000FD2B4941F861
:100BA00024002F4840F82470641CB4F5FA6FEBDB86
:100BB0002648FFF7ADFD804600250BE0284A52F895
:100BC0002510224A52F825000FF0E8FC1F4941F891
:100BD00025006D1CB5F5FA6FF0DB4FF07F514046F4
:100BE000FFF7C0FE81461948FFF792FD824649464D
:100BF0000FF05EFBBDE8F0872DE9F74F90B004469B
:100C000011984FEA40090126012533E0AE4217DD75
:100C100054F82600099054F8250044F82600099855
:100C200044F82500701C54F820000990681C54F802
:100C30002010701C44F82010691C099844F8210009
:100C40004FEA690710E000005800002058660020B5
:100C5000C8000020CC0000200000F03F0000E03F72
:100C600098850020F61B7F10022F01DBBE42F9DCC5
:100C70003E44AD1C4D45C9DB4FF00208C4E04FEACD
:100C8000480A129901FB08F00EF001FF02460B46DC
:100C9000CDE90401FD48FE490EF008FDCDE906014D
:100CA0000EF016FC0A900A980FF068FA0022F94B31
:100CB000CDE902010EF052FFCDE904010EF066FB12
:100CC000CDE906010EF004FC0E900E980FF056FAD6
:100CD000CDE904010E980FF051FA00224FF0404385
:100CE000CDE900010EF03AFFCDE90201DDE9042370
:100CF0000EF034FFCDE906010EF0EAFB0D900A98E4
:100D00000FF03CFACDE904010EF040FBCDE90601FD
:100D10000EF0DEFB0C904FF07E5B00200B90012765
:100D20006FE03D4644E005EB0806701C54F82010C7
:100D30000B980FF033FC079054F8261058460FF02C
:100D40002DFC069007990FF027FD099054F8261006
:100D50000B980FF023FC0790701C54F82010584695
:100D60000FF01CFC069007990FF034FA089054F825
:100D7000250009990FF010FD44F82600691C54F86D
:100D8000210008990FF008FD711C44F8210054F867
:100D9000250009990FF01EFA44F82500691C54F843
:100DA000210008990FF016FA691C44F821005544F7
:100DB0004D45B8DDDDE90B010FF0F0FBCDF838B0A3
:100DC000069058460D990FF0E9FB059006990FF033
:100DD000E3FC594607900FF0FDF983460C990E98F5
:100DE0000FF0DCFB06900D990B980FF0D7FB0590E8
:100DF00006990FF0EFF907900B990FF0EBF90B90B4
:100E0000BF1C47458DDBD046C1453FF738AF13B017
:100E1000BDE8F08F10B58AB09F4800889F490988C7
:100E20009F4A12689F4B1B68CDE90532CDE9071038
:100E30009D4801889D4802689D4800689D4B1B683D
:100E4000CDE90130CDE903219B48007800909B4813
:100E500003889B4802889B499B480BF08BFA9A4871
:100E60000BF04AFC04462246974998A001F010FE78
:100E70000AB010BDB0B04FF4165002F0EBFB02F018
:100E80004DFCFF202D9000202C9034211DA80BF04C
:100E9000F3FC00201C9016901490139001F045F87C
:100EA00001F00EFA01F02DFA08F0F4FC4FF4E130F5
:100EB00002F0FAFE4FF4E1514FF4967003F08EF811
:100EC00008F07CFA01F0B2F84FF4165008F0A6FDD5
:100ED000FFF7F2F9FFF704FA2021804809F0A7FE96
:100EE00008F092FA08F056FB08F0D4FC4FF4A0602A
:100EF00008F0F4FF4FF4E13008F044FD4FF41640E1
:100F000008F0FBFE4FF4784075490880052003F097
:100F1000F9FCD0B100BF4FF4165008F0EEFE0320EC
:100F200003F086FC4FF4164008F0E7FE6D4803F02E
:100F3000AAFC2D90052003F0E5FC10B12D980028A7
:100F4000E9D14FF4FA7008F0E2FC01F00FFF01F074
:100F500015FB01F0F7FCF0E3634800886349088063
:100F60000846008801900EF0A9FD4FF06632604BF4
:100F7000CDE902010EF0F2FD00225E4BCDE9040145
:100F80000EF094FB4FF066325B4BCDE906010FF09B
:100F90000BF85A4A5A4BCDE908010EF087FBCDE910
:100FA0000A010EF095FA5749574A126841F8220093
:100FB00055480068401C5449086008460068B0F570
:100FC000FA6FC8DB00204FF080410DF045FBCDE902
:100FD000040100204D490DF03FFBCDE90201DDE9A0
:100FE00004230EF063FBCDE906010DF059FA024629
:100FF0000B46CDE9080100204FF080410DF0DAFCEE
:10100000CDE90A010EF0E6FC41490860642008F0D1
:101010007EFC3C48006811903A480068109000201F
:1010200012902F907FE037492F9851F82000014609
:101030000C9011980FF07EFA04D232492F9851F893
:10104000200011902F492F9851F8200001460C9054
:1010500010980FF06FFB04D22A492F9851F8200006
:10106000109028492F9851F8200005900FF086F82D
:1010700021F00041CDE9080112980FF07FF8CDE989
:101080000601DDE908230EF055FA43E038E92F5454
:10109000FB2119400000E03FB4000020B000002018
:1010A000BC000020C0000020AE000020A4000020F2
:1010B000C4000020B8000020A8000020AC000020E0
:1010C000AA00002064260108AA0400206573703875
:1010D0003236362F7465737400000000000C014036
:1010E0004C010020A0860100E60000201000002036
:1010F00066660A400000B0406666FA3F85EB51B86C
:101100001E85EB3F184700205000002000409F4004
:1011100054000020CDE90A010EF0DAF912902F9860
:10112000401C80B22F902F98B0F5FA6FFFF67BAF7E
:10113000FE4912980FF0BCF8FD490860FD480168AF
:10114000FD48FFF736FAFD490860FA480168FA4899
:10115000FFF761FAFA490860F6480168F648FFF7B8
:1011600082FAF8490860F448FFF78EFBF6490860F8
:10117000F148FFF7E1FCF5490860DDE910100FF0D8
:101180000BFBF3490860EE48016811980FF090F8E6
:10119000F0490860E648016811980FF089F8EE49B7
:1011A0000860E3480168E64800680FF081F8EB4901
:1011B0000860E2480168E34800680FF079F8E84900
:1011C00008600020DB4908600F900E900D902F9072
:1011D00011E0D9492F9851F820000C90D7480168A8
:1011E0000C980FF0D9FAD44A2F9942F821002F9881
:1011F000401C80B22F902F98B0F5FA6FE9DB0020E9
:101200004FF080410DF028FACDE904010020D549C6
:101210000DF022FACDE90201DDE904230EF046FAD1
:10122000CDE906010DF03CF902460B46CDE9080177
:1012300000204FF080410DF0BDFBCDE90A010EF01A
:10124000C9FBC949086000202F902FE02F980EF0AD
:1012500035FCCDE90601C44800680EF018FC0022F8
:101260004FF08043CDE900010EF020FA02460B4614
:10127000CDE902010020BD490EF018FACDE90401C4
:10128000DDE906230EF06AFC0022B94BCDE9080126
:101290000EF064FCCDE90A010EF01AF9B54A2F9957
:1012A00042F821002F98401C80B22F90AE48006871
:1012B0000C9000EBD070012101EB60012F9881426E
:1012C000C4DC00202F9012E09B492F9851F8201089
:1012D0004000401CA84A42F8201000212F984000EE
:1012E000801C42F820102F98401C80B22F902F981D
:1012F000B0F5FA6FE8DB4FF4FA602F900FE00021B1
:101300002F984000401C9C4A42F820102F98400023
:10131000801C42F820102F98401C80B22F909249D8
:101320002F9809688842EADB01228F4801689248B9
:10133000FFF762FC00202F9081E02F98B0F5FA6F44
:1013400079DA2F984000801C8B4951F820007749AA
:1013500000900EF0ADFF02902F984000801C86494F
:1013600051F82000714900900EF0A2FF01900299FF
:101370000FF014F904902F984000401C7E4951F85A
:1013800020006A4900900EF093FF02902F984000D1
:10139000401C794951F82000644900900EF088FF04
:1013A000019002990FF0FAF8039004990EF012FFE1
:1013B00005900EF0E3FECDE906010EF037F80022AD
:1013C0004FF08043CDE908010EF0C8FBCDE90A01DA
:1013D0000EF07EF8694A2F9942F8210065492F984E
:1013E00051F8200011460B902F9851F820000A90D8
:1013F0000B990FF0D3F80C900F990EF0EBFE0F90B5
:101400005C492F9851F820000A902F9851F820003D
:1014100009900A990FF0C2F858490B902F9851F88B
:10142000200001460A900B980FF0B8F80C900E9926
:101430000EF0D0FE0E902F98401C80B22F904A499B
:101440002F9809688842FFF678AF4FF4FA614B484D
:10145000FFF7AFF84A4908604FF4FA614748FFF7D1
:10146000A8F832490B900FF099F801460C900F98AC
:101470000EF01EFF434908604FF4FA613F48FFF742
:1014800098F82A4905900FF089F8014606900E98C1
:101490000EF00EFF07900EF071FECDE908010DF081
:1014A000C5FFCDE90A010EF013F8374908600020A6
:1014B0002F902BE02F492F9851F8200008903148A9
:1014C000016808980FF068F92A490A902F9851F896
:1014D000200008902B48016808980FF05DF90990EA
:1014E0000A990FF05BF825490B902F9851F82000CE
:1014F00001460A900B980FF051F80C900D990EF0E0
:1015000069FE0D902F98401C80B22F902F98B0F557
:10151000FA6FCFDB4FF4FA611848FFF74AF8034936
:1015200005900FF03BF8014606902FE00000FA44CA
:101530002C0000205000002018470020140000203C
:10154000180000201C0000202000002024000020A3
:101550002800002030000020340000203800002047
:101560003C00002000409F40540000200000F03F5D
:1015700000408F4058660020980800209885002081
:101580004000002044000020480000200D980EF08C
:101590008FFE07900EF0F2FDCDE908010DF046FF39
:1015A000CDE90A010DF094FFF449086002F020F93A
:1015B0000A2008F0ACF9F2480078012874D1F1480B
:1015C0000068F149096888422CD0EE4800688078AC
:1015D00010280CD0EB4800688078822803D1EB48B3
:1015E0000078012803D0EA48007801281AD1E5489C
:1015F0000068807801460C90E6A00AF0AFFEE14852
:10160000006802F0D0FBDF48006800F50070DD499B
:10161000086008460068E3490968884202D1E24848
:10162000D8490860E1480068E1490968884279D0F2
:10163000E0A00AF093FEDD480068807820283CD1C5
:10164000DA480068407906282FD2DFE800F0030A64
:1016500011181F26DAA00AF081FE0120CB4908707C
:101660002AE0DCA00AF07AFE0020C549087023E0D9
:10167000E3A00AF073FE0020C14908701CE0ECA052
:101680000AF06CFE0020BE49087015E0F2A00AF0D6
:1016900065FE0020BA4908700EE0FAA00AF05EFE6E
:1016A0000020B749087007E07FE0FEA00AF056FE70
:1016B0000020B349087000BF4CE0BC480068807847
:1016C00090281FD1B9480068807910B1012811D144
:1016D00000E000BFFCA00AF041FE0120AC49087008
:1016E0000020FC49087002F003FC02F0C5FBFFF784
:1016F00091FB06E0F8A00AF031FE0020A049087036
:1017000000BF27E0A94800688078D02816D1F8A04B
:101710000AF024FEEF480078012804D10020ED49AA
:10172000087017E025E0EB480078012812DD002062
:10173000E849087002F0DCFB0CE017E19B48006808
:101740008078302806D1EEA00AF008FE974800689D
:1017500001F03CFA9548006800F500709349086074
:1017600008460068EB490968884202D1EA488F4977
:101770000860EA480068EA49096888423BD0E748BF
:101780000168891CE7A00AF0E9FDE448006800F55B
:101790000070E249086008460068E5490968884227
:1017A00029D1E448DD49086025E0E3A00AF0D6FD30
:1017B0000021E6480AF0E2FA0021E5480AF0DEFAE4
:1017C0000020E44908604FF48061E3480BF032F8F0
:1017D00001F00EFC78B9E1A00AF0C0FD01206849D3
:1017E00008700020DB4908604FF48061DA480BF094
:1017F00021F801F051F8DE48008800F4004038B3C9
:10180000DB480088C0F30E002E9000202F9008E0E7
:10181000D8492F98095CD84A11542F98401C80B29F
:101820002F90DDE92E108842F2DB0020D04908809D
:101830000021D14A2F9811541146D04802F096FF4A
:10184000FEF778FD2C9818B1CB49CDA00AF086FDA3
:1018500007F0A6FECC490B900EF0A0FE0C900EF007
:101860001DFECA4908801DA808F0B5F900287DD0E2
:1018700000201C909DF8760000F00100D0B19DF88A
:1018800079009DF8781040EA012000B21390139877
:101890000EF024FEBC490C900EF00AFD1B900220B5
:1018A0001C90B9491B980EF079FE0C900EF0F6FDD5
:1018B000B74908809DF8760000F0020030B300BF01
:1018C00000BF1C98401D1DA9095C1C98001D1DAA85
:1018D000105C41EA0020149014980EF017FEAA49FB
:1018E0000C900EF0E5FC1A901C98801CC0B21C9065
:1018F0001A980EF043FCCDE92A0100BFA54ADDE9A4
:101900002A10C2E90010A449149808809DF87600B6
:1019100000F0040020B31C98001D1DA9085C010400
:101920001C98401D1DAA105C41EA00211C98801DD6
:10193000105C084318901C98C01CC0B21C909749BA
:10194000189808609649189808600021102006230E
:10195000CDE900014FF4C3717620189A07F08DFC91
:101960009DF8760000F0080030B100E08CE11C9892
:10197000001D1DA9085C15E140E100004C0000209D
:101980002D010020FC000020F80000202E01002086
:101990002F010020B7A2CBCDCAFDBEDD3A3078259D
:1019A000780D0A0000010020D8B40020F0000020CB
:1019B000EC000020BDD3CAD5B5BDCAFDBEDD3A00DE
:1019C000434F4E4E454354B1A8CEC4B3C9B9A60D3A
:1019D0000A000000C1ACBDD3D2D1BEDCBEF8A3ACBE
:1019E000B2BBD6A7B3D6B5C4D0ADD2E9B0E6B1BECE
:1019F000A3ACD7BCB1B8D6D8C6F40D0A000000001D
:101A0000C1ACBDD3D2D1BEDCBEF8A3ACB2BBBACFA1
:101A1000B8F1B5C4BFCDBBA7B6CBB1EACAB6B7FB68
:101A2000A3ACD7BCB1B8D6D8C6F40D0A00000000EC
:101A3000C1ACBDD3D2D1BEDCBEF8A3ACB7FECEF1F3
:101A4000B6CBB2BBBFC9D3C3A3ACD7BCB1B8D6D891
:101A5000C6F40D0A00000000C1ACBDD3D2D1BEDC7B
:101A6000BEF8A3ACCEDED0A7B5C4D3C3BBA7C3FB1F
:101A7000BBF2C3DCC2EBA3ACD7BCB1B8D6D8C6F4BA
:101A80000D0A0000C1ACBDD3D2D1BEDCBEF8A3AC00
:101A9000CEB4CADAC8A8A3ACD7BCB1B8D6D8C6F4FD
:101AA0000D0A0000C1ACBDD3D2D1BEDCBEF8A3ACE0
:101AB000CEB4D6AAD7B4CCACA3ACD7BCB1B8D6D828
:101AC000C6F40D0A00000000B6A9D4C4B3C9B9A673
:101AD0000D0A00002C010020B6A9D4C4CAA7B0DCAE
:101AE000A3ACD7BCB1B8D6D8C6F40D0A000000002C
:101AF00050494E47B1A8CEC4BBD8B8B40D0A0000B7
:101B0000B7FECEF1C6F7B5C8BCB630CDC6CBCD0D4D
:101B10000A000000F4000020D8A4002008010020E2
:101B200004010020C3FCC1EE3A25730D0A00000039
:101B30000C010020D8C40020D0E8D2AAC1ACBDD38B
:101B4000B7FECEF1C6F70D0A000000000008004005
:101B50000004004048010020D8D90020BDA8C1A23F
:101B6000544350C1ACBDD3B3C9B9A60D0A0000009F
:101B700060010020F2E2002078010020D003002064
:101B80000D0A25730D0A00000000C842AA000020BB
:101B9000AC00002070000020AE0000209C0000205F
:101BA000C4000020000915901C98401D095C1C9879
:101BB000001D1DAA105C00F00F0041EA00201790E4
:101BC0001C98801CC0B21C901798C1B22F4801709D
:101BD000002010210423CDE900104FF4CD718E2098
:101BE000179A07F04AFB002110200223CDE90001DB
:101BF0004FF4D7718E20159A07F03FFB9DF87600C1
:101C000000F0100048B31C98001D1DA9085C0106D7
:101C10001C98401D1DAA105C41EA00411C98801DC3
:101C2000105C41EA00211C98C01D105C084319900B
:101C30001C98001DC0B21C901549199808601549E0
:101C400019980860002010210623CDE900104FF4F8
:101C5000E1717620199A07F010FB9DF8760000F0EC
:101C6000100088B11C98401D1DA9095C1C98001D1E
:101C70001DAA105C41EA002000B216900649169891
:101C80000860064916980870FFF766B9A80000209A
:101C9000A0000020B8000020A4000020A90000201F
:101CA00010B540F225515E4809F022FA58B35D485C
:101CB000007880B95A48001D008820B35848001D9C
:101CC00000885949594A1268885458480068401C8D
:101CD0005649086017E05248001D00885249534A8F
:101CE000126888545148006820B9012150480AF010
:101CF00045F803E000214E480AF0D4FA4B4800684A
:101D0000401C4A49086010BD10B5012148480AF03E
:101D1000FEFA002834D04548434902684548006827
:101D2000801C0AF008FD41480088000A4149096802
:101D300008703E4800783F49096848703D4800688F
:101D400000F500703B490860084600683A49096898
:101D5000884202D139483749086000203349086079
:101D6000002137480AF09EFA002131480AF006F8AF
:101D700000212F480AF096FA01212D480AF0D8FADE
:101D800010BD10B501212E480AF0C1FA38B32D4814
:101D90000078062819D2DFE800F003060B0C0D10BE
:101DA00000F06BFE11E002F0DCF800F066FE0CE0E3
:101DB00000BF00BF00F061FE07E000201949087075
:101DC00000211F4809F0DAFF00BF00BF1D4800785E
:101DD000401C1C490870012119480AF0A9FA10BDDD
:101DE00010B5012188070AF092FA28B1FFF712F81E
:101DF000012188070AF09CFA10BD10B5012001F0FE
:101E0000FAFE012110480AF093FA10BD704770479E
:101E100070477047704770477047704770470000C1
:101E2000004C00402D010020D8D90020480100209E
:101E300000080040EC000020F4000020D8A400209E
:101E4000000400402C010020000C00400CB50020D4
:101E5000019000906C48006840F480306A49086046
:101E600000BF6948006800F4003000900198401CF1
:101E70000190009818B90198B0F5A06FF1D16248AF
:101E8000006800F4003010B10120009001E0002053
:101E900000900098012843D15C48006840F0100091
:101EA0005A4908600846006820F0030008600846A8
:101EB000006840F00200086053484068524948609A
:101EC0000846406848600846406840F480604860C2
:101ED0000846406820F47C1048600846406840F49A
:101EE000E81048600846006840F08070086000BF55
:101EF0004548006800F000700028F9D0424840686A
:101F000020F00300404948600846406840F0020065
:101F1000486000BF3C48406800F00C000828F9D138
:101F20000CBD10B5FFF792FF10BD10B53648006824
:101F300040F00100344908600846406834490840D0
:101F40003149486008460068324908402E49086017
:101F50000846006820F4802008600846406820F4A5
:101F6000FE0048604FF41F008860FFF7DAFF4FF073
:101F700000602949086010BD10B500210020002232
:101F8000214B5B6803F00C0121B1042906D008291C
:101F900028D107E0214B224C236027E01F4B204C27
:101FA000236023E0184B5B6803F47010164B5B68EA
:101FB00003F48032022303EB904022B9194B4343D0
:101FC000174C23600DE0104B5B6803F4003323B122
:101FD000144B4343124C236003E0104B4343104C1B
:101FE000236003E00D4B0E4C236000BF00BF064B87
:101FF0005B68C3F303130C4CE15C094B1B68CB40DB
:10200000074C236010BD0000001002400020024079
:102010000000FFF8FFFFF6FE08ED00E000127A0076
:10202000D000002000093D00D400002008B50121A7
:10203000442009F00FFA1C20ADF8000048208DF86C
:1020400003006946574808F045FD0120ADF800003F
:1020500028208DF803006946534808F03BFD08BD71
:1020600010B5044614B10120504908704F4800785B
:10207000002837D010214B4808F0BFFD78B1082167
:10208000484808F0BAFD50B10421464808F0B5FDB3
:1020900028B10121444808F0B0FD012822D10A20CE
:1020A00007F035FC00204149087010213D4808F038
:1020B000A4FD08B9012010BD08213A4808F09DFD93
:1020C00008B90220F7E70421364808F096FD08B960
:1020D0000320F0E70121344808F08FFD01281BD1CF
:1020E0000420E8E710212F4808F087FD012813D1CC
:1020F00008212C4808F081FD01280DD10421294830
:1021000008F07BFD012807D10121274808F075FD63
:1021100010B90120254908700020CCE710B5012135
:10212000214808F06AFD012819D1052007F0EFFBCE
:1021300001211D4808F061FD012830D10EE0012188
:10214000194808F05AFD48B9052007F0E0FB0121C5
:10215000154808F052FD08B9012010BDEFE7022133
:10216000114808F04AFDD0B9052007F0D0FB022144
:102170000D4808F042FD90B910E002210A4808F02D
:102180003CFD01280AD1052007F0C1FB02210648C9
:1021900008F033FD012801D10220DEE7EDE7002041
:1021A000DBE700000018014000080140E4000020C7
:1021B00008B50121084609F040F901214FF40470E7
:1021C00009F048F90E20ADF8000000208DF803005A
:1021D00069463E4808F07EFC08BD00B591B03C4819
:1021E00000F0A2F83B4806903B480790002008907A
:1021F0000320099000200A9080200B9040000C9052
:1022000080000D9020200E9000020F900020109072
:1022100006A92F4800F02AF901212D4800F051F9B4
:102220000020019001208DF808008DF809004FF47E
:10223000602003900020049003208DF8140001A971
:1022400024484C3807F0DFFE052301220B212148EA
:102250004C3807F070FF052302220C211D484C3832
:1022600007F069FF052303220D211A484C3807F0B7
:1022700062FF012117484C3807F0FCFE0121154888
:102280004C3807F0ECFE13484C3807F00AFF00BF4B
:1022900010484C3807F00AFF0028F9D10D484C3897
:1022A00007F00EFF00BF0B484C3807F00EFF002868
:1022B000F9D1012107484C3807F011FF11B000BDDA
:1022C00010B5FFF775FFFFF788FF10BD0010014044
:1022D000080002404C240140E600002008B501211E
:1022E000102009F0AAF83120ADF8000010208DF878
:1022F000030001208DF8020069460A4808F0EAFB55
:1023000008BD10B5FFF7EAFF2021064808F08FFC52
:102310001021044808F08BFC0121024808F089FCD8
:1023200010BD00000010014001684FF6FE72114020
:1023300001600021016041608160C1608D49884277
:1023400008D18C490839496841F00F01894A083A97
:1023500051608AE087491431884208D1854908399B
:10236000496841F0F001834A083A51607DE08149B3
:102370002831884208D17F490839496841F47061A1
:102380007C4A083A516070E07A493C31884208D171
:1023900078490839496841F47041764A083A5160F1
:1023A00063E074495031884208D17249083949685C
:1023B00041F470216F4A083A516056E06D4964312A
:1023C000884208D16B490839496841F47001694A6B
:1023D000083A516049E067497831884208D1654937
:1023E0000839496841F07061624A083A51603CE03E
:1023F0006149884206D1011F096841F00F01021F9F
:10240000116032E05C491431884208D15A49091FF1
:10241000096841F0F001584A121F116025E0564941
:102420002831884208D15449091F096841F4706174
:10243000514A121F116018E04F493C31884208D1BF
:102440004D49091F096841F470414B4A121F116040
:102450000BE049495031884207D14749091F0968B3
:1024600041F47021444A121F1160704710B50022D8
:10247000026847F6F0739A430C6A8B6823430C6931
:1024800023434C6923438C692343CC6923434C6A1F
:1024900023438C6A23431A430260CB6843600B6872
:1024A00083604B68C36010BD0021016041608160A2
:1024B000C160016141618161C1610162416281620A
:1024C000704721B1026842F00102026004E0026834
:1024D0004FF6FE731A40026070471AB103680B434F
:1024E000036002E003688B430360704741607047FC
:1024F0000146486880B2704701460020002201F082
:1025000080531BB11C4B083B1A6802E0194B083B77
:102510001A6802EA01030BB1012000E000207047B5
:1025200000F0805119B11449091F086002E01149F7
:1025300008394860704701460020002201F08053AE
:102540001BB10D4B083B1A6802E00A4B083B1A68A6
:1025500002EA01030BB1012000E00020704700F007
:10256000805119B10449091F086002E00149083986
:10257000486070470800024008040240FD48FE49D8
:10258000086008460068FD490860FD48FD4908608C
:10259000FD48FE49086008460068FD490860FD489E
:1025A000FD490860FD48FE49086008460068FD498D
:1025B0000860FD48FD4908600020FD490870FD499C
:1025C0000870FD490870FD490870704770B50546F0
:1025D0000C4622462946ED480068801C0AF0ABF8FC
:1025E0002046E11704EB1161090AE84A12681170EC
:1025F000E11704EB11610912A4EB0121E34A12680F
:102600005170E248006800F50070E0490860084633
:102610000068E1490968884202D1DB48DB4908606B
:1026200070BD70B504460D460220E5490860E549D5
:10263000086020460AF060F8C01CE3490860822068
:10264000E2490870DF480078DF4909780844DF492B
:102650004870002088700120C87020460AF04CF8AD
:10266000000ADA49087120460AF046F8D74948714D
:1026700020460AF041F8064632462146D348801DDE
:102680000AF059F820460AF037F8801DCF490D545A
:10269000CB480068CB4A12681044CB4A12688118B4
:1026A000CA48FFF793FF70BD70B50120C4490860A8
:1026B0000A20C4490860C6480068001DC549096869
:1026C0000844801CC44909680844BF490860BD48E3
:1026D0000068096844181020BC49087000BF2046F3
:1026E000E11704EB5161C911A4EBC115E11704EB2B
:1026F0005161CC11002C01DD45F08005B348B04A92
:1027000012688554AE480068401CAD490860002C32
:10271000E5DC0021AD4AAA48006811540421A8480C
:102720000068401C11544D21A5480068801C1154BC
:102730005121A3480068C01C11545421A0480068CE
:10274000001D11549E480068401D115404219C48EE
:102750000068801D1154C22199480068C01D1154A1
:10276000002197480068083011546421944800689B
:102770000930115496490868C11700EB1161C1F383
:102780000722924B8E4909680A315A5490490868C9
:10279000C11700EB11610912A0EB0121CAB28849EF
:1027A00009680B315A541A46854909680C3150188A
:1027B00087490A68894909F0BEFF86490868C11738
:1027C00000EB1161C1F307227D4909680C31804B90
:1027D0001B6819447D4B5A547E490868C11700EBA9
:1027E00011610912A0EB0121CAB2754909680D31C6
:1027F000774B1B681944754B5A54714909680E315F
:10280000734A126811441A46881872490A68744952
:1028100009F091FF70490868C11700EB1161C1F31D
:102820000722674909680E31694B1B681944694BD7
:102830001B681944654B5A5467490868C11700EB77
:1028400011610912A0EB0121CAB25D4909680F317B
:102850005F4B1B6819445F4B1B6819445B4B5A5410
:102860005749096810315A4A12681144594A126886
:1028700011441A46881858490A685A4909F05BFFFA
:102880004F4800684F4A126810444F4A1268811836
:102890004E48FFF79BFE70BD10B53D4800683B49B0
:1028A0000968884240D039480068394908600846BC
:1028B00000683549884204D101F500603449086058
:1028C00023E0334801684848814204D100F50060A4
:1028D0002F49086019E02E4801684448814204D11C
:1028E00000F500602A4908600FE029480068A0F55B
:1028F00000702749086008460068A0F5007008606D
:1029000008460068A0F50070086020480468204868
:1029100000681E490860FFF7C7FE002134A0FFF7DA
:1029200080FE1A48046005E0FFF7BEFE002130A0DB
:10293000FFF777FE00201F4908701F4908701F49E4
:10294000087010BD10B580220021244809F06AFFEC
:102950002BA22CA1214809F00DFD204809F0CCFE46
:102960001B490860802200211D4809F05BFF26A159
:102970001B484DE0D8A40020EC000020F00000200F
:10298000D8B20020F4000020D8B40020F8000020C5
:10299000FC000020D8C2002000010020D8C4002084
:1029A0000401002008010020D8D200200C010020E2
:1029B0002D0100202F0100202E0100202C010020DD
:1029C000200100202401002028010020D8D600206A
:1029D000100100201401002018010020D8D400208C
:1029E00058D50020D8D50020D8B60020D8B800206F
:1029F000657370383236362F7465737400000000CA
:102A000044485431310000002561646D696E000056
:102A100009F0B0FCA94809F06FFEA94908608022BE
:102A20000021A84809F0FEFEA7A1A64809F0A2FCD3
:102A3000A44809F061FEA649086080220021A5484B
:102A400009F0F0FEA4A1A34809F094FC40F25B70E9
:102A5000A549086008469F490268A4A009F07EFCC9
:102A6000A749A8A009F07AFC9449AAA009F076FC2D
:102A70009449ACA009F072FC10BD10B5C020AD495E
:102A80000870002048700221AA48FFF79FFD10BD82
:102A90002DE9F0470546884616460120A6490860FC
:102AA000284609F029FE801CA4490860A448066055
:102AB00008460068A2490968441830209D490870FA
:102AC00000BF2046E11704EB5161C911A4EBC11707
:102AD000E11704EB5161CC11002C01DD47F08007B8
:102AE0009448954A1268875493480068401C92495C
:102AF0000860002CE5DC284609F0FEFDC0F3072144
:102B00008C4A8D4800681154284609F0F5FDC1B281
:102B1000884A89480068401C1154284609F0ECFD99
:102B20008146844A84490968891C50184A462946C6
:102B300009F001FE284609F0DFFD7F490968891C7C
:102B400008447C4900EB010932464146484609F0F9
:102B5000F2FD79480068794A12681044784A126890
:102B600081187448FFF732FDBDE8F08770B505465F
:102B70000C462246294673480068801C09F0DBFD9C
:102B80002046E11704EB1161090A6E4A12681170C0
:102B9000E11704EB11610912A4EB0121694A1268E3
:102BA0005170002167480268A01C115465480068F4
:102BB00000F50070634908600846006862490968CA
:102BC000884202D161485F49086070BD2DE9F04F2D
:102BD000ADF5057D804698F8011098F8000001EBEE
:102BE0000020849008F10207002081460546064631
:102BF000834601244FF0010A00BF0BF1010B00BF17
:102C0000281917F8009009F07F0000FB0A664FEAC8
:102C1000CA1A641C09F080000028F1D1301905445B
:102C200031198498401A84900124A2460026849881
:102C30000028E2D1594646A009F090FB0020054645
:102C4000064600BF00BF809030E000BF281917F88B
:102C5000009009F07F0000FB0A664FEACA1A641C64
:102C600009F080000028F1D1601C2844395C60190B
:102C7000385C01EB0020801C83908398301A82908E
:102C80002919839808448190819839186846829A56
:102C900009F051FD68468299FFF768FF3019054435
:102CA0000124A24600268098401C809080985845B8
:102CB000CBDB0DF5057DBDE8F08F000058D5002079
:102CC00014010020D8D500207075626C6963000083
:102CD0001801002058D6002062726F6B65722E6555
:102CE0006D71782E696F00001C010020B7FE20CEA8
:102CF000F120C6F7A3BA25733A25640D0A00000037
:102D0000D8D40020BFCDBBA7B6CB4944A3BA257306
:102D10000D0A0000D3C320BBA720C3FBA3BA2573B1
:102D20000D0A0000C3DC20202020C2EBA3BA2573CB
:102D30000D0A0000D8D60020200100202401002028
:102D400028010020040100200C010020D8C400202C
:102D5000B1BEB4CEBDD3CAD5C1CB2564B8F6CDC6FD
:102D6000CBCDCAFDBEDD0D0A0000000008B5012173
:102D7000042008F06FFB4FF48050ADF800000320F2
:102D80008DF8020010208DF803006946F14807F025
:102D9000A1FE01221103EF4807F04DFF08BD70B5F9
:102DA00005460C460020EC4908604FF48061EB4872
:102DB00009F040FD2946EAA000F0CBFF0CE06420BA
:102DC00006F0A5FDE8A1E54809F084FC00B107E0A4
:102DD0002146E6A009F0C2FA201EA4F10104EED1BA
:102DE00000BFE3A009F0BAFA002C01DC012070BD9D
:102DF0000020FCE710B5044600224FF48051D5486E
:102E000007F019FF4FF4FA7006F081FD012211035B
:102E1000D04807F010FF0CE0642006F078FDD5A143
:102E2000CE4809F057FC00B107E02146CFA009F0D9
:102E300095FA201EA4F10104EED100BFCCA009F048
:102E40008DFA002C01DC012010BD0020FCE710B53C
:102E500004460020C04908604FF48061BF4809F073
:102E6000E9FCC6A2C8A1CBA000F073FF0DE04FF4AF
:102E70007A7006F04CFDCDA1B84809F02BFC00B1EA
:102E800007E02146B9A009F069FA201EA4F1010467
:102E9000EDD100BFB6A009F061FA002C01DC0120E1
:102EA00010BD0020FCE710B504460020AA490860C8
:102EB0004FF48061A94809F0BDFCBE48BE490268D4
:102EC000BEA000F046FF1AE0642006F020FDC2A17B
:102ED000A24809F0FFFB00B115E0C1A19F4809F02D
:102EE000F9FB08B1012010BDBFA19C4809F0F2FB1D
:102EF00008B10220F7E721469CA009F02FFA201E16
:102F0000A4F10104E0D100BF99A009F027FA002C38
:102F100001DC0320E7E7B9A009F020FA00208E4980
:102F200008604FF480618D4809F084FCBBA000F07C
:102F300010FF0CE0642006F0EAFCBCA1874809F011
:102F4000C9FB00B107E0214688A009F007FA201E5E
:102F5000A4F10104EED100BF002C01DC0420C2E783
:102F60000020C0E710B5044600207B4908604FF4FC
:102F700080617A4809F05EFC0DE04FF47A7006F04B
:102F8000C6FCADA1754809F0A5FB00B107E02146DC
:102F900076A009F0E3F9201EA4F10104EDD100BFF1
:102FA00073A009F0DBF9002C01DC012010BD00202A
:102FB000FCE710B504460DE04FF47A7006F0A7FC6C
:102FC000A0A1664809F086FB00B107E0214667A092
:102FD00009F0C4F9201EA4F10104EDD100BF64A0E2
:102FE00009F0BCF9002C01DC012010BD0020FCE739
:102FF00010B597A009F0B2F93220FFF7FBFE20B11F
:1030000097A009F0ABF9012010BD9BA009F0A6F92B
:103010009CA009F0A3F932219FA0FFF7C0FE20B1C8
:10302000A0A009F09BF90220EEE7A5A009F096F90F
:10303000A848007800281FD1A7A009F08FF93221F5
:10304000AAA0FFF7ACFE20B1ACA009F087F90320DD
:10305000DAE7B2A009F082F9B5A009F07FF91E20E5
:10306000FFF7F5FE20B1B7A009F078F90420CBE70F
:10307000BBA009F073F954E00221364807F0BDFD0A
:1030800000283FD1BBA009F069F93221BEA0FFF7AB
:1030900086FE20B1C0A009F061F90320B4E7C6A004
:1030A00009F05CF9C9A009F059F93221CDA0FFF768
:1030B00076FE20B1CFA009F051F90420A4E7D5A0F5
:1030C00009F04CF9D9A009F049F93C20FFF74AFF73
:1030D00020B1DCA009F042F9052095E7E0A009F055
:1030E0003DF9E3A009F03AF93221E7A0FFF757FED6
:1030F00020B1E9A009F032F9062085E7EEA009F039
:103100002DF90EE0F2A009F029F91E20FFF751FF7A
:1031100020B18CA009F022F9072075E790A009F0F2
:103120001DF9F0A009F01AF93221F2A0FFF737FEDD
:1031300020B1F4A009F012F9082065E7F8A009F021
:103140000DF9FBA009F00AF93221FEA0FFF727FED6
:10315000FEE100000008014048010020D8D900200D
:1031600025730D0A000000004F4B0000256420006D
:103170000D0A000072656164790000003132333459
:103180003536373800000000687561776569356944
:103190000000000041542B43574A41503D22257303
:1031A000222C222573220D0A000000000A0D0A4F6E
:1031B0004B0000001C01002058D6002041542B4336
:1031C000495053544152543D22544350222C2225FD
:1031D00073222C25640D0A00434F4E4E4543540084
:1031E000434C4F5345440000414C52454144592003
:1031F000434F4E4E4543544544000000C1ACBDD33F
:10320000B7FECEF1C6F7B3C9B9A6A3ACD7BCB1B867
:10321000BDF8C8EBCDB8B4AB0D0A000041542B4348
:10322000495053454E440D0A000000000D0A4F4B13
:103230000D0A0D0A3E000000636F6E6E65637465D3
:10324000640000005749464920474F542049500028
:10325000D7BCB1B8B8B4CEBBC4A3BFE90D0A000057
:10326000B8B4CEBBCAA7B0DCA3ACD7BCB1B8D6D873
:10327000C6F40D0A00000000B8B4CEBBB3C9B9A6AD
:103280000D0A0000D7BCB1B8C9E8D6C3535441C435
:10329000A3CABD0D0A00000041542B43574D4F44B3
:1032A000453D3100C9E8D6C3535441C4A3CABDCA81
:1032B000A7B0DCA3ACD7BCB1B8D6D8C6F40D0A0011
:1032C000C9E8D6C3535441C4A3CABDB3C9B9A60DF6
:1032D0000A00000030010020D7BCB1B8C8A1CFFB64
:1032E000D7D4B6AFC1ACBDD30D0A000041542B43B7
:1032F000574155544F434F4E4E3D3000C8A1CFFB70
:10330000D7D4B6AFC1ACBDD3CAA7B0DCA3ACD7BCD1
:10331000B1B8D6D8C6F40D0A00000000C8A1CFFB92
:10332000D7D4B6AFC1ACBDD3B3C9B9A60D0A00009E
:10333000D7BCB1B8C1ACBDD3C2B7D3C9C6F70D0AAB
:1033400000000000C1ACBDD3C2B7D3C9C6F7CAA73D
:10335000B0DCA3ACD7BCB1B8D6D8C6F40D0A000017
:10336000C1ACBDD3C2B7D3C9C6F7B3C9B9A60D0A9C
:1033700000000000D7BCB1B8C9E8D6C3D7D4B6AFF7
:10338000C1ACBDD30D0A000041542B4357415554E5
:103390004F434F4E4E3D3100C9E8D6C3D7D4B6AFE8
:1033A000C1ACBDD3CAA7B0DCA3ACD7BCB1B8D6D82A
:1033B000C6F40D0A00000000C9E8D6C3D7D4B6AFE2
:1033C000C1ACBDD3B3C9B9A60D0A0000D7BCB1B812
:1033D000BFAAC6F4536D617274636F6E6669670D40
:1033E0000A00000041542B43575354415254534D4B
:1033F00041525400BFAAC6F4536D617274636F6E7C
:10340000666967CAA7B0DCA3ACD7BCB1B8D6D8C6CA
:10341000F40D0A00BFAAC6F4536D617274636F6E37
:10342000666967B3C9B9A60D0A000000C7EBCAB93F
:10343000D3C3415050C8EDBCFEB4ABCAE4C3DCC238
:10344000EB0D0A00B4ABCAE4C3DCC2EBCAA7B0DC24
:10345000A3ACD7BCB1B8D6D8C6F40D0A00000000A2
:10346000B4ABCAE4C3DCC2EBB3C9B9A60D0A000011
:10347000D7BCB1B8B9D8B1D5536D617274636F6EF2
:103480006669670D0A00000041542B435753544F9F
:1034900050534D4152540000B9D8B1D5536D6172AB
:1034A00074636F6E666967CAA7B0DCA3ACD7BCB1A2
:1034B000B8D6D8C6F40D0A00B9D8B1D5536D61722B
:1034C00074636F6E666967B3C9B9A60D0A00000020
:1034D000B5C8B4FDC1ACBDD3C2B7D3C9C6F70D0AD8
:1034E00000000000D7BCB1B8C9E8D6C3CDB8B4ABB2
:1034F0000D0A000041542B4349504D4F44453D3186
:1035000000000000C9E8D6C3CDB8B4ABCAA7B0DC90
:10351000A3ACD7BCB1B8D6D8C6F40D0A00000000E1
:10352000C9E8D6C3CDB8B4ABB3C9B9A60D0A00007B
:10353000D7BCB1B8B9D8B1D5B6E0C2B7C1ACBDD36C
:103540000D0A000041542B4349504D55583D300061
:1035500020B10CA008F002FF092055E511A008F0E9
:10356000FDFE15A008F0FAFE6420FFF79CFC20B1D8
:1035700016A008F0F3FE0A2046E51BA008F0EEFEB8
:10358000002041E5B9D8B1D5B6E0C2B7C1ACBDD3D2
:10359000CAA7B0DCA3ACD7BCB1B8D6D8C6F40D0A64
:1035A00000000000B9D8B1D5B6E0C2B7C1ACBDD3F8
:1035B000B3C9B9A60D0A0000D7BCB1B8C1ACBDD320
:1035C000B7FECEF1C6F70D0A00000000C1ACBDD3B6
:1035D000B7FECEF1C6F7CAA7B0DCA3ACD7BCB1B872
:1035E000D6D8C6F40D0A0000C1ACBDD3B7FECEF1EB
:1035F000C6F7B3C9B9A60D0A000000002DE9F041D5
:10360000ADF5007D04460E46FF27B8467A1C0F49EB
:1036100040A809F0D5F87A1C0D49684609F0D0F8A1
:1036200009E014F8010B80EA070540A8405D80EA34
:1036300008071DF80580301EA6F10101CEB2F0D1B9
:1036400048EA07200DF5007DBDE8F0817C090108FE
:103650007C0A010810B586B004460121302007F02D
:10366000F9FE0121080507F002FF4FF48050ADF884
:10367000140018208DF8170003208DF8160005A9F6
:10368000FE4807F027FA0420ADF814008DF8170063
:1036900003208DF8160005A9F94807F01BFA8020D1
:1036A000ADF8140010208DF8170003208DF81600D7
:1036B00005A9F34807F00EFA01940020ADF80800C0
:1036C000ADF80A00ADF80C00ADF810000C20ADF814
:1036D0000E0001A9EB4807F08EFB0121E94807F035
:1036E00016FC4021E74807F0FAFC012240F2255180
:1036F000E44807F018FC35208DF8000002208DF812
:1037000001008DF8020001208DF80300684606F0E4
:10371000EAFB0020DC49086006B010BD1FB501219E
:10372000082007F0A4FE4FF47A70ADF80800472097
:10373000ADF804000020ADF80A00ADF8060001A9BC
:10374000D24807F0BFFF01221146D04808F031FBF4
:103750000121CE4808F0ECFD32208DF80000022057
:103760008DF8010003208DF8020001208DF8030080
:10377000684606F0B8FB0121C44808F0FFFA1FBDF7
:1037800010B50346C2480078814201DDC048017887
:10379000002205E0BF48805C18705B1C501CC2B260
:1037A0008A42F7DB0020BA4C2070084610BD70B585
:1037B00005460E4600248021B14807F038FA032060
:1037C00006F0A5F800BF0CE0295DAE4807F00CFC40
:1037D00000BF8021AB4807F075FC0028F9D0601CC1
:1037E000C4B2B442F0DD8021A54807F022FA70BDD2
:1037F00010B5A9480088A9490860A9480088486010
:10380000A84800788860A8480068000CC860A648EE
:1038100000680861A5480068000C4861A34800687A
:103820008861A3480068C861A24800880862A2486D
:103830000068000C4862A048006888629F480068E1
:10384000000CC8629D48006808639D480088486372
:103850009C48008888639C499C4800680CF09EFE48
:1038600004460CF01BFE8D49C863974998480068D0
:103870000CF094FE04460CF011FE8849086495494A
:10388000954800680CF08AFE04460CF007FE834958
:1038900048649049914800680CF080FE04460CF0A2
:1038A000FDFD7E4988648B498D4800680CF076FEEA
:1038B00004460CF0F3FD7949C864864989480068DC
:1038C0000CF06CFE04460CF0E9FD74490865814972
:1038D000854800680CF062FE04460CF0DFFD6F497D
:1038E00048657C49814800680CF058FE04460CF09D
:1038F000D5FD6A49886577497D4800680CF04EFE21
:1039000004460CF0CBFD6549C865724979480068EA
:103910000CF044FE04460CF0C1FD604908666D4998
:10392000754800680CF03AFE04460CF0B7FD5B49A0
:1039300048666849714800680CF030FE04460CF097
:10394000ADFD5649886663496D4800680CF026FE57
:1039500004460CF0A3FD5149C8665E4969480068F9
:103960000CF01CFE04460CF099FD4C4908675949BF
:10397000654800680CF012FE04460CF08FFD4749C4
:10398000486762480078002874D000205F490870BA
:1039900020215F48FFF7F4FE5E4908705C4800781C
:1039A000012867D108460078801EC1B25848FFF749
:1039B00025FE5949086008460088000A57490870E2
:1039C000554800785649087052480078801E504982
:1039D000085C524909788842E3D14E480078401E7D
:1039E0004B49085C4E4909788842DAD1484840780A
:1039F000032802D006283ED1ACE045488078002854
:103A00003AD14348C078052836DC4148C0780428BC
:103A100033DC3F48C078434908703D48407942490B
:103A20000870084600784006000E39498870032067
:103A3000384908707BE019483A49097830F8210084
:103A4000C0F30721334802780078401C314B1870CE
:103A50002F488154334801780078401C314A107057
:103A60000E4810F82110184602780078401C187093
:103A700027485BE0BEE092E063E061E000100140B7
:103A800000140140005000409C812242000C004084
:103A900034010020D8D80020AA00002018D9002026
:103AA000AC000020A8000020B8000020C4000020C6
:103AB000A4000020AE000020C0000020BC000020B8
:103AC000B0000020B400002000401C46140000207C
:103AD000180000200000C8421C0000202000002028
:103AE00024000020280000202C00002030000020AE
:103AF00034000020380000203C000020400000205E
:103B000044000020480000204C0000203501002027
:103B1000B8D900203E010020380100203C010020DF
:103B20003D01002036010020370100208154524819
:103B300001780078401E504A107000297FF47BAF56
:103B400036E083204D4948700220887003204C499C
:103B500008702DE049488078C0B94848C0780528E9
:103B600014DC4648C07804280ADC4448C07845493B
:103B70000870424841794448424A127840F822107D
:103B80003F480078801E3E49087011E086203B497E
:103B900048700220887003203949087008E08020AE
:103BA000364948700120887003203549087000BFED
:103BB00000BF334801783148FFF720FD33490860E2
:103BC00008460088C0F307212D4802780078401C81
:103BD0002B4B1870294881542C48017818460278DC
:103BE0000078401C187025488154184601782348F5
:103BF000FFF7DDFD10BD2649097800291EDD2549A6
:103C00000978234A1278914207D021490978214A3C
:103C100011700021204A117013E01F49097805290D
:103C20000FDA1D49097801441B4A117011460978C1
:103C3000052906DB0121194A117002E00021154A0D
:103C40001170704710B540F22551154807F050FA31
:103C500080B1134807F0CCF9C4B20D480078402871
:103C600008D210480A490978445409480078401C91
:103C70000749087010BD000037010020B8D90020A6
:103C80003E0100203601002018D900203801002014
:103C9000340100203F0100204001002035010020B8
:103CA00000500040D8D8002010B586B0044601214D
:103CB000102007F0CFFB0121C80407F0D8FB182023
:103CC0008DF817004FF48060ADF8140003208DF8D4
:103CD000160005A9424806F0FDFE04208DF81700E5
:103CE0004002ADF8140003208DF8160005A93C48E9
:103CF00006F0F0FE01940020ADF80800ADF80A00CF
:103D0000ADF80C00ADF810000C20ADF80E0001A9C4
:103D1000344807F070F82021324807F0E0F901221A
:103D200040F225512F4807F0FEF834208DF80000AE
:103D300003208DF801008DF8020001208DF80300AA
:103D4000684606F0D0F80121264807F0E0F806B0F2
:103D500010BD0FB438B505A800902348009A049907
:103D600008F0EAFA002000901F4808F0C5FC05465C
:103D700000BF1C48008800F040000028F9D0002453
:103D80000CE01948005D1749091D088000BF15485F
:103D9000008800F040000028F9D0641CAC42F0D349
:103DA00038BC5DF814FB00BF0E4A128802F04002D6
:103DB000002AF9D001210CE04A1C825C094B1B1D32
:103DC0001A8000BF074A128802F04002002AF9D088
:103DD000491C4378027803EB02228A42ECDA7047EE
:103DE00000100140004C0040D8DD002010B501213A
:103DF0001F4808F08CFA68B11E48008840F4004063
:103E00001C49088001211A4808F092FA002118483C
:103E100007F0B4FF10BD7FB505460C4601212020F8
:103E200007F025FBADF80450ADF800400020ADF8D8
:103E30000600ADF8020069460D4807F043FC012278
:103E400011460B4807F0B5FF0121094807F096FF1E
:103E500037208DF80C0000208DF80D0002208DF821
:103E60000E0001208DF80F0003A806F03CF87FBD7E
:103E700000140040600100201FB54FF4A06006F060
:103E80002DF80121084607F0F2FA4FF0804007F0C4
:103E900045FB42F20F70ADF8080048F69F40ADF8C0
:103EA00004000020ADF80600ADF80A0001A94FF0AB
:103EB000804007F007FC0121880708F039FA012249
:103EC0001146900707F075FF0121880707F056FF9C
:103ED0001C208DF8000002208DF8010001208DF8D3
:103EE00002008DF80300684605F0FDFF1FBD0000CD
:103EF0001FB54FF4A06005F0F1FF0121022007F08B
:103F0000B6FA354807F00AFB4EF65F20ADF8080018
:103F100048F69F40ADF804000020ADF80600ADF86B
:103F20000A0001A92C4807F0CDFB01212A4808F01E
:103F3000FFF901221146284807F03BFF01212648DE
:103F400007F01CFF1D208DF8000002208DF80100F5
:103F500001208DF802008DF80300684605F0C3FFCC
:103F60001FBD1FB54FF4A06005F0B8FF012102206E
:103F700007F07DFA184807F0D1FA44F61F60ADF853
:103F8000080041F61F40ADF804000020ADF806001F
:103F9000ADF80A0001A9104807F094FB01210E4872
:103FA00008F0C6F9012211460B4807F002FF012173
:103FB000094807F0E3FE1D208DF8000001208DF870
:103FC000010000208DF8020001208DF803006846F2
:103FD00005F089FF1FBD0000000400407FB50546C5
:103FE0000C464FF4A06005F079FF0121042007F092
:103FF0003EFAADF80850ADF804400020ADF80600D8
:10400000ADF80A0001A9104807F05CFB01210E4839
:1040100008F08EF9012211460B4807F0CAFE002174
:10402000094807F0ABFE1E208DF8000001208DF836
:10403000010000208DF8020001208DF80300684681
:1040400005F051FF7FBD0000000800400246134606
:1040500010E010782A2805D01078202802DB10788C
:104060007A2801DDFF20704710782C2801D1481EE6
:10407000C1B2521C0029ECD1D01AC0B2F3E710B57E
:104080000246012000E050430B1EA1F10104E1B201
:10409000F9D110BD2DE9F34F81B007463C46002011
:1040A0000090834681460026804628E020782D280F
:1040B00002D148F00208641C20782C2802D0207815
:1040C0002A2800D11CE020782E2803D148F00108CE
:1040D000641C09E02078392802DC2078302803DAD3
:1040E0004FF0000900260BE008F0010010B1701C31
:1040F000C6B203E009F1010000F0FF09641CD5E736
:1041000000BF08F0020000B17F1C00250EE0A9F1FD
:104110000100401BC1B20A20FFF7B1FF795D3039C1
:10412000009A00FB01200090681CC5B24D45EEDBF3
:10413000052E00DD05260298067000250EE0701E93
:10414000401BC1B20A20FFF79AFF09F1010129447F
:10415000795C303900FB01BB681CC5B2B542EEDBAF
:1041600031460A20FFF78BFF009901FB00BA08F0E7
:10417000020008B1CAF1000A5046BDE8FE8F2DE9E1
:10418000FC5F07468A464FF00008CDF804A0FEA168
:10419000019808F09FFA0646F079303800F0FF0BDE
:1041A00003213046FFF752FF0546FF2D04D070195A
:1041B0006946FFF76FFF38704FF000096CE0F2A11D
:1041C000019808F087FA064600245CE0042000EB22
:1041D0008400C1B23046FFF739FF0546FF2D09D0F4
:1041E00070196946FFF756FFC1B208EB8802B81C88
:1041F000815400E049E0052000EB8400C1B2304664
:10420000FFF724FF0546FF2D0AD070196946FFF716
:1042100041FFC1B208EB8802B81C1044417000E0B5
:1042200033E0062000EB8400C1B23046FFF70EFFFA
:104230000546FF2D0AD070196946FFF72BFF81B2A2
:1042400008EB8802B81C1044418000E01DE0072004
:1042500000EB8400C1B23046FFF7F8FE0546FF2DA3
:104260000AD070196946FFF715FFC1B208EB880242
:10427000B81C1044017100E007E008F1010000F0F3
:10428000FF08601CC4B2042CA0DB00BF701C0190AE
:1042900009F1010000F0FF09D94590DBBDE8FC9F62
:1042A0002DE9FC5F07468A464FF00008CDF804A0D0
:1042B000B7A1019808F00EFA0646F079303800F000
:1042C000FF0B03213046FFF7C1FE0546FF2D04D04A
:1042D00070196946FFF7DEFE78704FF0000970E054
:1042E000ABA1019808F0F6F90646002460E004202E
:1042F00000EB8400C1B23046FFF7A8FE0546FF2D53
:104300000AD070196946FFF7C5FEC1B208EB8802F2
:1043100007F13E00815400E04CE0052000EB8400F2
:10432000C1B23046FFF792FE0546FF2D0BD0701943
:104330006946FFF7AFFEC1B208EB880207F13E0005
:104340001044417000E035E0062000EB8400C1B26B
:104350003046FFF77BFE0546FF2D0BD070196946EE
:10436000FFF798FE81B208EB880207F13E00104487
:10437000418000E01EE0072000EB8400C1B230461F
:10438000FFF764FE0546FF2D0BD070196946FFF755
:1043900081FEC1B208EB880207F13E0010440171B2
:1043A00000E007E008F1010000F0FF08601CC4B263
:1043B000042C9CDB00BF701C019009F1010000F08F
:1043C000FF09D9458CDBBDE8FC9FF8B505460F46D3
:1043D00071A1384608F07EF9064606213046FFF7FF
:1043E00035FE0446FF2C05D030196946FFF752FE12
:1043F00085F88B0007213046FFF728FE0446FF2C86
:1044000005D030196946FFF745FE85F88C00092173
:104410003046FFF71BFE0446FF2C05D030196946D5
:10442000FFF738FEC5F8A000F8BD2DE9F8430546B2
:1044300088465BA1404608F04DF906460221304609
:10444000FFF704FE0446FF2C05D030196946FFF73C
:1044500021FE85F89900002713E0F81CC1B2304610
:10446000FFF7F4FD0446FF2C08D030196946FFF72A
:1044700011FEC1B205F18D00C15500E003E0781CCA
:10448000C7B20C2FE9DB00BF0F213046FFF7DEFD7E
:104490000446FF2C05D030196946FFF7FBFDA5F84F
:1044A0009A0010213046FFF7D1FD0446FF2C05D0BD
:1044B00030196946FFF7EEFDA5F89C001121304642
:1044C000FFF7C4FD0446FF2C05D030196946FFF7FD
:1044D000E1FDA5F89E00BDE8F8832DE9F04F85B019
:1044E0000446884630A1404608F0F4F8074601210A
:1044F0003846FFF7ABFD0546FF2D23D0781904A9F8
:10450000FFF7C8FD82469DF810100A20FFF7B7FD9F
:10451000BAFBF0F642F21070B6FBF0F0C1B27E20AA
:1045200001556420B6FBF0F06421B0FBF1F201FB11
:1045300012017F2001556420B6FBF0F100FB1161F0
:104540008020015503213846FFF780FD0546FF2DE9
:104550005BD0781904A9FFF79DFD06469DF8100071
:10456000801CC1B20A20FFF78AFDB6FBF0F044F8C8
:10457000810F9DF81000801CC1B20A20FFF77FFD5B
:10458000B6FBF0F114E000002447504753560000FA
:10459000244244475356000024474E4747410000F9
:1045A00024474E475341000024474E524D430000DC
:1045B00000FB116A50460BF0A9FF81469DF81000E0
:1045C000C0F10500C1B20A20FFF759FD00900BF0C1
:1045D0009DFF834649460BF0E1FF8246D8490BF028
:1045E00067FE052102900A20FFF749FD216800FBC4
:1045F00001FA50460BF08AFF019002990BF0EAFD98
:1046000003900BF04BFF44F8810904213846FFF773
:104610001DFD0546FF2D02D0785D84F8850005213B
:104620003846FFF713FD0546FF2D45D0781904A93C
:10463000FFF730FD06469DF81000801CC1B20A202D
:10464000FFF71DFDB6FBF0F044F8860F9DF8100053
:10465000801CC1B20A20FFF712FDB6FBF0F100FB8F
:10466000116A50460BF052FF81469DF81000C0F1D0
:104670000500C1B20A20FFF702FD00900BF046FFD3
:10468000834649460BF08AFF8246AD490BF010FE87
:10469000052102900A20FFF7F2FC216800FB01FAD5
:1046A00050460BF033FF019002990BF093FD0390FD
:1046B0000BF0F4FE44F8860906213846FFF7C6FCE5
:1046C0000546FF2D02D0785D84F88A00092138461E
:1046D000FFF7BCFC0546FF2D1ED0781904A9FFF793
:1046E000D9FC064642F21070B6FBF0F0C1B27D2054
:1046F00001556420B6FBF0F06421B0FBF1F201FB40
:1047000012017C2001556420B6FBF0F100FB116022
:1047100000F5FA60A4F87A0005B0BDE8F08FF8B5AE
:1047200004460D4687A1284607F0D4FF0646072118
:104730003046FFF78BFC0746FF2F16D0F01969466D
:10474000FFF7A8FCA4F8A4009DF8000003280CDAE9
:104750009DF80000C0F10300C1B20A20FFF78FFCF2
:10476000B4F8A4104843A4F8A400F8BD70B50446FA
:104770000D4629462046FFF702FD29462046FFF751
:104780008FFD29462046FFF720FE29462046FFF7E9
:104790004CFE29462046FFF7A0FE29462046FFF79B
:1047A000BEFF70BD70B50025002604E0681C85B210
:1047B000052005F0ACF86548008800F4004008B911
:1047C000642DF3DB642D19DA60480088C0F30E0510
:1047D00000240CE05E48005D832800D109E05C48BD
:1047E000005D842801D1032603E0601C84B2AC4242
:1047F000F0DB00BFAC4202D1022600E0012600201F
:1048000052490880304670BD10B5024600200CE0C9
:1048100000BF504B1B8803F04003002BF9D0135C02
:104820004C4C241D2380431C98B28842F0DB10BD01
:1048300070B50546484C4AF2A01020804FF48060C5
:1048400060800520207100206071A5710120E07159
:10485000207961794840A1794840E1794840207247
:1048600040F60D20A4F809000B212046FFF7CCFFED
:10487000C82005F04CF8394951F8250005F03DFAFB
:10488000FFF790FF70BD70B505462E46324C4FF4D1
:104890007F4000EA152040EA15604FF47F0101EAED
:1048A000052108434FF07F4101EA056140EA010616
:1048B0004AF2A01020804FF4E060608065202071F3
:1048C00001206071C4F80660A072207961794840C7
:1048D000D4F8061080EA1160C1F307414840E1882E
:1048E000C1F307214840A1794840A17A4840E072CD
:1048F00040F60D20A0810E212046FFF785FFFFF72F
:1049000051FF70BD70B50546134C4AF2A0102080CF
:104910004FF4407060800E20207165710120A071FD
:10492000207961794840A1794840E07140F60D2036
:1049300020810A212046FFF767FFFFF733FF70BD94
:104940000000704224474E5654470000600100208A
:10495000F2E20020004800404AE500207C0B0108FC
:10496000F74908807047F649891C0880704708B5E8
:10497000F348801C00880090BDF8000008BDF04A94
:104980001080921C1180704710B504462046FFF736
:10499000E7FF052004F097FFFFF7E9FF10BDE948A6
:1049A0000089E74908807047E549891C08807047FD
:1049B00030B5014601F01F04C1F34513CA0AE502F0
:1049C00005EB43151544A8B230BD00BF011EA0F190
:1049D0000102D0B2FAD1704710B503460C46D9484F
:1049E000808849F24131884205D0D648808845F216
:1049F0001031884214D1D3494889FFF7B1FF18120A
:104A0000FFF7B1FFD8B2FFF7AEFFCE498889FFF7B5
:104A1000A7FF2012FFF7A7FFE0B2FFF7A4FFABE06C
:104A2000C848808846F6040188421DD1C54880796F
:104A3000012804D1C3480088401EC01A83B2C1496E
:104A40004889FFF78DFF1812FFF78DFFD8B2FFF7E7
:104A50008AFFBC498889FFF783FF2012FFF783FF95
:104A6000E0B2FFF780FF87E0B648808841F6631127
:104A7000884247D1B3488079A8B9B2480088401E1F
:104A8000C01A83B2AF494889FFF76AFF0020FFF7D9
:104A90006AFF0020FFF767FF1812FFF764FFD8B224
:104AA000FFF761FF16E0A7494889FFF759FF181281
:104AB000FFF759FFD8B2FFF756FFA2490988491EF0
:104AC000C1F30F20FFF74FFF9E490978491EC8B276
:104AD000FFF749FF9B498889FFF742FF2012FFF744
:104AE00042FFE0B2FFF73FFF96494988491EC1F3F4
:104AF0000F20FFF738FF93498978491EC8B2FFF7A6
:104B000032FF39E08F48808845F21051884220D129
:104B10008C494889FFF724FF1812FFF724FF8949C1
:104B20004989491C88B2FFF71BFFD8B2FFF71BFF6A
:104B300084498889FFF714FF2012FFF714FF814989
:104B40008989491C88B2FFF70BFFE0B2FFF70BFF22
:104B500012E07C488079012804D17A480088401E00
:104B6000C01A83B2774948891946FFF708FF75498B
:104B700088892146FFF703FF10BD2DE9F041054666
:104B80000E4600240027A0466E480088A84203DD98
:104B90006C484088B04202DC0020BDE8F08131461C
:104BA0002846FFF719FF6748808849F2413188425B
:104BB00011D06448808846F6040188420BD06148D1
:104BC000808845F21031884205D05E48808841F6E1
:104BD0006311884203D12E20FFF7C2FE0DE0594831
:104BE000808845F21051884204D14FF43850FFF7C5
:104BF000B7FE02E02220FFF7B3FE5248808849F258
:104C00002031884202D10220FFF7DFFEFFF7AFFE1E
:104C100004464C48808841F66311884201D1204601
:104C2000BBE70220FFF7D1FEFFF7A1FE044645488F
:104C3000808849F2413188420BD04248808845F251
:104C40001031884205D03F48808845F21051884293
:104C50000AD10220FFF7B9FEFFF789FE8046E7B2CE
:104C60004FF6FF7000EA07273648808849F2253161
:104C7000884216D03348808844F23551884210D09B
:104C800030488088091F88420BD02E4880884BF21C
:104C90000551884205D02B4880884CF20551884246
:104CA00001D1204679E72748808849F2413188427E
:104CB0000BD02448808845F21031884205D0214825
:104CC000808845F21051884207D1E012C002B91223
:104CD00040EA411040EAE8205FE72046FFF768FE1F
:104CE0005BE700B51748808849F24131884211D00E
:104CF0001448808846F6040188420BD01148808809
:104D000045F21031884205D00E48808841F6631183
:104D1000884203D12920FFF723FE0FE0094880884D
:104D200045F21051884204D14FF42450FFF718FE89
:104D300004E040F273110720FFF721FE00BD0000E0
:104D4000FE07006CD8E1002000B5FD48808849F2DC
:104D50004131884211D0FA48808846F604018842E1
:104D60000BD0F748808845F21031884205D0F448CE
:104D7000808841F66311884203D12820FFF7F0FDB7
:104D80000EE0EF48808845F21051884204D14FF47C
:104D90002050FFF7E5FD03E000210720FFF7EFFDBE
:104DA00000BD70B5044600230026E548807901283F
:104DB0000BD1E348808846F60401884205D0E048DC
:104DC000808841F66311884208D1DD488079F0B9C6
:104DD000DB48808841F66311884218D1082C15D22F
:104DE000DFE804F00406080A0C0E101206240DE099
:104DF00007240BE0042409E0052407E0012405E072
:104E0000002403E0032401E0022400BF00BFCC48DB
:104E1000808849F24131884217D0C948808846F6D7
:104E20000401884211D0C648808845F2103188427A
:104E30000BD0C348808845F21051884205D0C04845
:104E4000808841F6631188427ED1082C1CD2DFE8AD
:104E500004F00406090C0F12151800BF14E043F00B
:104E6000800311E043F040030EE043F0C0030BE089
:104E700043F0200308E043F0600305E043F0A003A3
:104E800002E043F0E00300BF00BFAD48808845F278
:104E90001051884202D14FF4585600E03626A848F7
:104EA000808845F2103188420DD0A548808845F2AF
:104EB0001051884207D0A248808841F66311884289
:104EC00001D043F008039E48808846F604018842DA
:104ED00001D143F0020319463046FFF750FD9848D0
:104EE000808841F6631188421DD003F0200068B12C
:104EF0009348008892494988884214DA9048058886
:104F000040888F490880084645800CE08C4800881E
:104F10008B494988884206DD894805884088884948
:104F20000880084645808648808845F210518842AE
:104F300054D183494889FFF713FD0020FFF713FD83
:104F40007F494989491C00E077E088B2FFF708FDF6
:104F50000020FFF708FD7A494989891C88B2FFF7CC
:104F6000FFFC77490988491EC1F30F20FFF7FBFCBE
:104F700073494989C91C88B2FFF7F2FC7049097866
:104F8000491EC8B2FFF7EFFC6D498889FFF7E8FCBE
:104F90000020FFF7E8FC6A498989491C88B2FFF7BD
:104FA000DFFC0020FFF7DFFC65498989891C88B296
:104FB000FFF7D6FC62494988491EC1F30F20FFF76D
:104FC000D2FC5F498989C91C88B2FFF7C9FC5C49DA
:104FD0008978491EC8B2FFF7C6FC55E05849488990
:104FE000FFF7BEFC0020FFF7BEFC0020FFF7BBFC74
:104FF00053490988491EC1F30F20FFF7B4FC5049FB
:105000000978491EC8B2FFF7AEFC4D498889FFF701
:10501000A7FC0020FFF7A7FC0020FFF7A4FC4849ED
:105020004988491EC1F30F20FFF79DFC4449897848
:10503000491EC8B2FFF797FC26E0082C1CD2DFE817
:1050400004F004070A0D0F12151843F0300313E0A3
:1050500043F0100310E043F020030DE000BF0BE02D
:1050600043F0380308E043F0280305E043F0180359
:1050700002E043F0080300BF00BF032643F480535F
:1050800019463046FFF77BFC70BD30B504460D462F
:1050900029462046FFF7A0FCFFF781FC294800883D
:1050A0002949088030BD30B503460C4615462448D2
:1050B000808849F24131884205D02148808845F2F4
:1050C0001031884214D11E494889FFF749FC181253
:1050D000FFF749FCD8B2FFF746FC19498889FFF76A
:1050E0003FFC2012FFF73FFCE0B2FFF73CFC93E0EF
:1050F0001348808845F21051884227D110494889C9
:10510000FFF72EFC1812FFF72EFC0D494989491CA8
:1051100088B2FFF725FCD8B2FFF725FC084988893B
:10512000FFF71EFC2012FFF71EFC05498989491C68
:1051300088B2FFF715FCE0B2FFF715FC6CE0000049
:10514000D8E100204C0100200008006CFC48808859
:1051500041F66311884228D1F948807920B9F8488E
:105160000088401EC01A83B2F5494889FFF7F8FB52
:105170001812FFF7F8FBD8B2FFF7F5FB1812FFF78C
:10518000F2FBD8B2FFF7EFFBED498889FFF7E8FBA8
:105190002012FFF7E8FBE0B2FFF7E5FB2012FFF774
:1051A000E2FBE0B2FFF7DFFB36E0E548808846F639
:1051B000040188421DD1E2488079012804D1E048E9
:1051C0000088401EC01A83B2DD494889FFF7C8FB3A
:1051D0001812FFF7C8FBD8B2FFF7C5FBD84988897A
:1051E000FFF7BEFB2012FFF7BEFBE0B2FFF7BBFBF1
:1051F00012E0D3488079012804D1D1480088401EAC
:10520000C01A83B2CE4948891946FFF7B8FBCC498A
:1052100088892146FFF7B3FBC9480089C94908803E
:10522000881C058030BD2DE9F0470446BE20FFF7FD
:1052300097FB0520FFF797FB20460AF03FFC074647
:105240004FF06632C04B0AF089FC05460AF0F2FBCB
:105250001FFA80F94846FFF786FB0120FFF783FB22
:10526000FF20FFF780FB0020FFF77DFB0020FFF70A
:105270007AFBBDE8F08710B50446002C66D1B04932
:105280008871F02008804FF4A0704880084680881C
:1052900049F2413188420BD0A948808846F6040182
:1052A000884205D0A648808845F2103188421AD13C
:1052B0002C20A34908812A2048812B208881084678
:1052C000808846F60401884205D09D48808845F2D2
:1052D0001031884206D14FF4A070994908804FF4EC
:1052E000F0704880A1E09648808845F210518842CD
:1052F00010D14FF43050924908814FF42850488122
:105300004FF42C5088814FF4F07008804FF44870AF
:1053100048808AE08A48808841F6631188420DD12E
:105320002C20874908812B2048812A2088814FF42E
:10533000F07008804FF44870488076E02220804961
:10534000088120204881212088816EE001207C494D
:1053500088714FF4A0700880F0204880084680884B
:1053600049F24131884205D07548808845F21031B4
:10537000884207D12C20724908812A2048812B209D
:1053800088813FE06E48808846F60401884207D154
:105390002C206B4908812B2048812A20888131E00C
:1053A0006748808845F21051884210D14FF4305040
:1053B000634908814FF4285048814FF42C5088816C
:1053C0004FF4487008804FF4F07048801AE05C4851
:1053D000808841F6631188420DD12C2058490881FC
:1053E0002A2048812B2088814FF4487008804FF490
:1053F000F070488006E02220514908812120488130
:10540000202088814E48808846F60401884205D0D5
:105410004B48808845F21031884206D14FF4F07035
:10542000474908804FF4A07048800020FFF7B9FC7E
:1054300010BD2DE9F04F86B004460D4690469946C2
:1054400004EB0800401E86B205EB0900401E87B23F
:105450003B48808849F24131884215D038488088DD
:1054600045F2103188420FD03548808846F6040155
:10547000884209D032488079012826D13048808876
:1054800041F66311884220D12D494889FFF768FA17
:105490002012FFF768FAE0B2FFF765FA3012FFF763
:1054A00062FAF0B2FFF75FFA25498889FFF758FAE8
:1054B0002812FFF758FAE8B2FFF755FA3812FFF74B
:1054C00052FAF8B2FFF74FFABEE01D48808841F665
:1054D000631188423AD11A480088A0EB0800001BEB
:1054E00084B205EB0900401E1FFA80F9144948896F
:1054F000FFF736FA2012FFF736FAE0B2FFF733FA79
:1055000004EB0801491EC1F30F20FFF72CFA04EB4E
:105510000801491EC8B2FFF726FA09498889FFF732
:105520001FFA2812FFF71FFAE8B2FFF71CFA4FEA3A
:105530002920FFF718FA09F0FF00FFF714FA83E0BB
:10554000D8E10020FE07006C66660440FE488088B3
:1055500045F21051884244D1FB494889FFF700FACF
:105560002012FFF700FAF8494989491C88B2FFF771
:10557000F7F9E0B2FFF7F7F9F3494989891C88B2D6
:10558000FFF7EEF93012FFF7EEF9EF494989C91C30
:1055900088B2FFF7E5F9F0B2FFF7E5F9EA49888943
:1055A000FFF7DEF92812FFF7DEF9E7498989491C80
:1055B00088B2FFF7D5F9E8B2FFF7D5F9E249898952
:1055C000891C88B2FFF7CCF93812FFF7CCF9DE4915
:1055D0008989C91C88B2FFF7C3F9F8B2FFF7C3F98C
:1055E00032E0D948807901280ED1AA46BB46D64878
:1055F0000088801B401E80B20190D3480088001BA9
:10560000401E80B2009003E0A246B3460195009789
:105610005020059051200490522003905320029076
:1056200051460598FFF7ABF959460498FFF7A7F9DB
:1056300001990398FFF7A3F900990298FFF79FF9E2
:1056400029462046FFF7C8F906B0BDE8F08F70B5CF
:1056500004460026BC48058840884543BA488088EF
:1056600046F60401884216D1B7488079012812D144
:105670000020B54988712A2048812B20888100218B
:105680000846FFF7A9F90120AF4988712B2048810E
:105690002A20888103E000210846FFF79DF9FFF7E3
:1056A0007EF9002602E0A9480480761CAE42FAD3B7
:1056B00070BD00B59FB00121080205F0BEFE0121BA
:1056C0004FF4B47005F0C6FE0120ADF8780010204C
:1056D0008DF87B0003208DF87A001EA99C4805F008
:1056E000F9F94CF23370ADF8780018208DF87B0092
:1056F00003208DF87A001EA9964805F0EBF94FF6C5
:105700008070ADF8780018208DF87B0003208DF8AC
:105710007A001EA9904805F0DDF941F20100ADF8CC
:10572000780018208DF87B0003208DF87A001EA9E0
:105730008A4805F0CFF901200890002009900F2039
:105740000A9000200B900C900D900E90019002900A
:1057500003200390002004900590069007900620F7
:105760000F900020109011901020129000201390A4
:1057700015901490169017904FF4805018900020B8
:1057800019904FF480401A9000201B9008A81C909C
:1057900001A81D900FA804F083FE0121062004F04B
:1057A000E7FF322004F0B3F80020FFF7EDF8664978
:1057B000888008468088FF280ADB084680884FF6E4
:1057C000FF71884204D060488088B0F5134F7CD1C7
:1057D000D320FFF7C5F8FFF7CAF85B498880FFF7C9
:1057E000C6F859498880FFF7C2F8574988800846AB
:1057F00080884FF6FF7101EA002053498880FFF747
:10580000B6F85149898808434F49888008468088FE
:1058100049F24131884258D0BF20FFF7A1F8FFF785
:10582000A6F849498880FFF7A2F847498880FFF722
:105830009EF845498880FFF79AF8434988800846D2
:1058400080884FF6FF7101EA00203F498880FFF70A
:105850008EF83D49898808433B49888008468088FE
:1058600046F60401884230D0D420FFF779F8FFF7DC
:105870007EF835498880FFF77AF833498880FFF74A
:1058800076F831498880084680884FF6FF7101EA32
:1058900000202D498880FFF76AF82B498988084342
:1058A000294988800846808845F21031884263D0B3
:1058B0004FF45A40FFF754F8FFF759F8224988800F
:1058C0004FF45B40FFF74CF800E055E0FFF74FF86E
:1058D0001D498880084680884FF6FF7101EA002044
:1058E000194988804FF45C40FFF73AF8FFF73FF81A
:1058F0001549898808431449888008468088B0F58E
:10590000004F02D145F2105088800F48808845F240
:105910001051884230D0A120FFF722F8FFF727F876
:1059200009498880FFF723F807498880084680885E
:105930004FF6FF7101EA002003498880FFF717F84E
:105940000149898808430BE0D8E100200008006C79
:10595000000C0140001401400018014000200140EB
:10596000FE4988800846808845F26171884203D1EB
:1059700041F66310F9498880F8488188F8A006F05C
:10598000EDFCF648808849F2413188427ED1CF2033
:10599000FEF7E6FF0020FEF7E6FFC120FEF7E3FF7B
:1059A0003020FEF7E0FFED20FEF7DAFF6420FEF77F
:1059B000DAFF0320FEF7D7FF1220FEF7D4FF812085
:1059C000FEF7D1FFE820FEF7CBFF8520FEF7CBFFE7
:1059D0001020FEF7C8FF7A20FEF7C5FFCB20FEF7A8
:1059E000BFFF3920FEF7BFFF2C20FEF7BCFF0020D1
:1059F000FEF7B9FF3420FEF7B6FF0220FEF7B3FF33
:105A0000F720FEF7ADFF2020FEF7ADFFEA20FEF7FE
:105A1000A7FF0020FEF7A7FF0020FEF7A4FFC0208D
:105A2000FEF79EFF1B20FEF79EFFC120FEF798FFAA
:105A30000120FEF798FFC520FEF792FF3020FEF709
:105A400092FF3020FEF78FFFC720FEF789FFB720B7
:105A5000FEF789FF3620FEF783FF4820FEF783FF1D
:105A60003A20FEF77DFF5520FEF77DFFB120FEF7BF
:105A700077FF0020FEF777FF1A20FEF774FFB620AD
:105A8000FEF76EFF0A20FEF76EFF00E097E0A2200F
:105A9000FEF769FFF220FEF763FF0020FEF763FFC9
:105AA0002620FEF75DFF0120FEF75DFFE020FEF7F8
:105AB00057FF0F20FEF757FF2A20FEF754FF28203C
:105AC000FEF751FF0820FEF74EFF0E20FEF74BFFBA
:105AD0000820FEF748FF5420FEF745FFA920FEF7F7
